{
  "contractName": "TodoList",
  "abi": [
    {
      "constant": true,
      "inputs": [
        {
          "name": "",
          "type": "uint256"
        }
      ],
      "name": "tasks",
      "outputs": [
        {
          "name": "id",
          "type": "uint256"
        },
        {
          "name": "content",
          "type": "string"
        },
        {
          "name": "done",
          "type": "bool"
        }
      ],
      "payable": false,
      "stateMutability": "view",
      "type": "function",
      "signature": "0x8d977672"
    },
    {
      "constant": true,
      "inputs": [],
      "name": "taskCount",
      "outputs": [
        {
          "name": "",
          "type": "uint256"
        }
      ],
      "payable": false,
      "stateMutability": "view",
      "type": "function",
      "signature": "0xb6cb58a5"
    },
    {
      "inputs": [],
      "payable": false,
      "stateMutability": "nonpayable",
      "type": "constructor",
      "signature": "constructor"
    },
    {
      "anonymous": false,
      "inputs": [
        {
          "indexed": false,
          "name": "id",
          "type": "uint256"
        },
        {
          "indexed": false,
          "name": "content",
          "type": "string"
        },
        {
          "indexed": false,
          "name": "done",
          "type": "bool"
        }
      ],
      "name": "TaskCreated",
      "type": "event",
      "signature": "0x05d0fb833127fc08168556d0e7ca9554fc3f6bc843b3b7d2bf1c35aea6bab660"
    },
    {
      "anonymous": false,
      "inputs": [
        {
          "indexed": false,
          "name": "id",
          "type": "uint256"
        },
        {
          "indexed": false,
          "name": "done",
          "type": "bool"
        }
      ],
      "name": "TaskDone",
      "type": "event",
      "signature": "0x251062f57a23c015c1bb3d83e76d85792cfbbf680886fc45d962d4605b0e5ea2"
    },
    {
      "constant": false,
      "inputs": [
        {
          "name": "_content",
          "type": "string"
        }
      ],
      "name": "createTask",
      "outputs": [],
      "payable": false,
      "stateMutability": "nonpayable",
      "type": "function",
      "signature": "0x111002aa"
    },
    {
      "constant": false,
      "inputs": [
        {
          "name": "_id",
          "type": "uint256"
        }
      ],
      "name": "toggleDone",
      "outputs": [],
      "payable": false,
      "stateMutability": "nonpayable",
      "type": "function",
      "signature": "0xd81ef739"
    }
  ],
  "bytecode": "0x60806040526000805534801561001457600080fd5b506100626040805190810160405280601e81526020017f446f204c6561726e61626c6520696e746572766965772070726f6a6563740000815250610067640100000000026401000000009004565b610252565b600080815480929190600101919050555060606040519081016040528060005481526020018281526020016000151581525060016000805481526020019081526020016000206000820151816000015560208201518160010190805190602001906100d39291906101ad565b5060408201518160020160006101000a81548160ff0219169083151502179055509050507f05d0fb833127fc08168556d0e7ca9554fc3f6bc843b3b7d2bf1c35aea6bab660600054826000604051808481526020018060200183151515158152602001828103825284818151815260200191508051906020019080838360005b8381101561016e578082015181840152602081019050610153565b50505050905090810190601f16801561019b5780820380516001836020036101000a031916815260200191505b5094505050505060405180910390a150565b828054600181600116156101000203166002900490600052602060002090601f016020900481019282601f106101ee57805160ff191683800117855561021c565b8280016001018555821561021c579182015b8281111561021b578251825591602001919060010190610200565b5b509050610229919061022d565b5090565b61024f91905b8082111561024b576000816000905550600101610233565b5090565b90565b610719806102616000396000f3fe608060405260043610610062576000357c0100000000000000000000000000000000000000000000000000000000900463ffffffff168063111002aa146100675780638d9776721461012f578063b6cb58a5146101f5578063d81ef73914610220575b600080fd5b34801561007357600080fd5b5061012d6004803603602081101561008a57600080fd5b81019080803590602001906401000000008111156100a757600080fd5b8201836020820111156100b957600080fd5b803590602001918460018302840111640100000000831117156100db57600080fd5b91908080601f016020809104026020016040519081016040528093929190818152602001838380828437600081840152601f19601f82011690508083019250505050505050919291929050505061025b565b005b34801561013b57600080fd5b506101686004803603602081101561015257600080fd5b81019080803590602001909291905050506103a1565b604051808481526020018060200183151515158152602001828103825284818151815260200191508051906020019080838360005b838110156101b857808201518184015260208101905061019d565b50505050905090810190601f1680156101e55780820380516001836020036101000a031916815260200191505b5094505050505060405180910390f35b34801561020157600080fd5b5061020a610470565b6040518082815260200191505060405180910390f35b34801561022c57600080fd5b506102596004803603602081101561024357600080fd5b8101908080359060200190929190505050610476565b005b600080815480929190600101919050555060606040519081016040528060005481526020018281526020016000151581525060016000805481526020019081526020016000206000820151816000015560208201518160010190805190602001906102c7929190610624565b5060408201518160020160006101000a81548160ff0219169083151502179055509050507f05d0fb833127fc08168556d0e7ca9554fc3f6bc843b3b7d2bf1c35aea6bab660600054826000604051808481526020018060200183151515158152602001828103825284818151815260200191508051906020019080838360005b83811015610362578082015181840152602081019050610347565b50505050905090810190601f16801561038f5780820380516001836020036101000a031916815260200191505b5094505050505060405180910390a150565b6001602052806000526040600020600091509050806000015490806001018054600181600116156101000203166002900480601f0160208091040260200160405190810160405280929190818152602001828054600181600116156101000203166002900480156104535780601f1061042857610100808354040283529160200191610453565b820191906000526020600020905b81548152906001019060200180831161043657829003601f168201915b5050505050908060020160009054906101000a900460ff16905083565b60005481565b61047e6106a4565b600160008381526020019081526020016000206060604051908101604052908160008201548152602001600182018054600181600116156101000203166002900480601f0160208091040260200160405190810160405280929190818152602001828054600181600116156101000203166002900480156105405780601f1061051557610100808354040283529160200191610540565b820191906000526020600020905b81548152906001019060200180831161052357829003601f168201915b505050505081526020016002820160009054906101000a900460ff161515151581525050905080604001511581604001901515908115158152505080600160008481526020019081526020016000206000820151816000015560208201518160010190805190602001906105b5929190610624565b5060408201518160020160006101000a81548160ff0219169083151502179055509050507f251062f57a23c015c1bb3d83e76d85792cfbbf680886fc45d962d4605b0e5ea282826040015160405180838152602001821515151581526020019250505060405180910390a15050565b828054600181600116156101000203166002900490600052602060002090601f016020900481019282601f1061066557805160ff1916838001178555610693565b82800160010185558215610693579182015b82811115610692578251825591602001919060010190610677565b5b5090506106a091906106c8565b5090565b60606040519081016040528060008152602001606081526020016000151581525090565b6106ea91905b808211156106e65760008160009055506001016106ce565b5090565b9056fea165627a7a72305820bca2d1b5705537571b4918b8027756bd2a6be5776139a7716e14c4f4439d6a0e0029",
  "source": "// declare the version of solidity\npragma solidity >=0.5.0;\n\n// declare smart contract\ncontract TodoList {\n    // state variable to hold the todolist count\n  uint public taskCount = 0;\n\n  struct Task {\n    uint id;\n    string content;\n    bool done;\n  }\n\n  mapping(uint => Task) public tasks;\n\n  event TaskCreated(\n    uint id,\n    string content,\n    bool done\n  );\n\n  event TaskDone(\n    uint id,\n    bool done\n  );\n\n  constructor() public {\n    createTask(\"Do Learnable interview project\");\n  }\n\n  function createTask(string memory _content) public {\n    taskCount ++;\n    tasks[taskCount] = Task(taskCount, _content, false);\n    emit TaskCreated(taskCount, _content, false);\n  }\n\n  function toggleDone(uint _id) public {\n    Task memory _task = tasks[_id];\n    _task.done = !_task.done;\n    tasks[_id] = _task;\n    emit TaskDone(_id, _task.done);\n  }\n\n}\n",
  "sourcePath": "/Users/cheks/Documents/blockchain-projects/eth-todo-list/contracts/TodoList.sol",
  "compiler": {
    "name": "solc",
    "version": "0.5.0+commit.1d4f565a.Emscripten.clang"
  },
  "schemaVersion": "3.0.1",
  "updatedAt": "2022-10-07T05:37:04.679Z",
  "devdoc": {
    "methods": {}
  },
  "userdoc": {
    "methods": {}
  }
}